{
  "_format": "hh-sol-artifact-1",
  "contractName": "GameBetting",
  "sourceName": "contracts/GameBetting.sol",
  "abi": [
    {
      "inputs": [
        {
          "internalType": "address",
          "name": "_arcToken",
          "type": "address"
        },
        {
          "internalType": "address",
          "name": "_initialOwner",
          "type": "address"
        }
      ],
      "stateMutability": "nonpayable",
      "type": "constructor"
    },
    {
      "inputs": [],
      "name": "EnforcedPause",
      "type": "error"
    },
    {
      "inputs": [],
      "name": "ExpectedPause",
      "type": "error"
    },
    {
      "inputs": [
        {
          "internalType": "address",
          "name": "owner",
          "type": "address"
        }
      ],
      "name": "OwnableInvalidOwner",
      "type": "error"
    },
    {
      "inputs": [
        {
          "internalType": "address",
          "name": "account",
          "type": "address"
        }
      ],
      "name": "OwnableUnauthorizedAccount",
      "type": "error"
    },
    {
      "inputs": [],
      "name": "ReentrancyGuardReentrantCall",
      "type": "error"
    },
    {
      "anonymous": false,
      "inputs": [
        {
          "indexed": true,
          "internalType": "uint256",
          "name": "betId",
          "type": "uint256"
        },
        {
          "indexed": true,
          "internalType": "string",
          "name": "lobbyId",
          "type": "string"
        },
        {
          "indexed": true,
          "internalType": "address",
          "name": "player1",
          "type": "address"
        },
        {
          "indexed": false,
          "internalType": "uint256",
          "name": "refundAmount",
          "type": "uint256"
        }
      ],
      "name": "BetCancelled",
      "type": "event"
    },
    {
      "anonymous": false,
      "inputs": [
        {
          "indexed": true,
          "internalType": "uint256",
          "name": "betId",
          "type": "uint256"
        },
        {
          "indexed": true,
          "internalType": "string",
          "name": "lobbyId",
          "type": "string"
        },
        {
          "indexed": true,
          "internalType": "address",
          "name": "player1",
          "type": "address"
        },
        {
          "indexed": false,
          "internalType": "uint256",
          "name": "amount",
          "type": "uint256"
        },
        {
          "indexed": false,
          "internalType": "string",
          "name": "gameType",
          "type": "string"
        }
      ],
      "name": "BetCreated",
      "type": "event"
    },
    {
      "anonymous": false,
      "inputs": [
        {
          "indexed": true,
          "internalType": "uint256",
          "name": "betId",
          "type": "uint256"
        },
        {
          "indexed": true,
          "internalType": "string",
          "name": "lobbyId",
          "type": "string"
        },
        {
          "indexed": true,
          "internalType": "address",
          "name": "player2",
          "type": "address"
        },
        {
          "indexed": false,
          "internalType": "uint256",
          "name": "amount",
          "type": "uint256"
        }
      ],
      "name": "BetJoined",
      "type": "event"
    },
    {
      "anonymous": false,
      "inputs": [
        {
          "indexed": false,
          "internalType": "uint256",
          "name": "newMinBet",
          "type": "uint256"
        },
        {
          "indexed": false,
          "internalType": "uint256",
          "name": "newMaxBet",
          "type": "uint256"
        }
      ],
      "name": "BetLimitsUpdated",
      "type": "event"
    },
    {
      "anonymous": false,
      "inputs": [
        {
          "indexed": true,
          "internalType": "uint256",
          "name": "betId",
          "type": "uint256"
        },
        {
          "indexed": true,
          "internalType": "string",
          "name": "lobbyId",
          "type": "string"
        },
        {
          "indexed": true,
          "internalType": "address",
          "name": "winner",
          "type": "address"
        },
        {
          "indexed": false,
          "internalType": "uint256",
          "name": "winnings",
          "type": "uint256"
        },
        {
          "indexed": false,
          "internalType": "uint256",
          "name": "houseFee",
          "type": "uint256"
        }
      ],
      "name": "BetResolved",
      "type": "event"
    },
    {
      "anonymous": false,
      "inputs": [
        {
          "indexed": false,
          "internalType": "uint256",
          "name": "oldFee",
          "type": "uint256"
        },
        {
          "indexed": false,
          "internalType": "uint256",
          "name": "newFee",
          "type": "uint256"
        }
      ],
      "name": "HouseFeeUpdated",
      "type": "event"
    },
    {
      "anonymous": false,
      "inputs": [
        {
          "indexed": true,
          "internalType": "address",
          "name": "previousOwner",
          "type": "address"
        },
        {
          "indexed": true,
          "internalType": "address",
          "name": "newOwner",
          "type": "address"
        }
      ],
      "name": "OwnershipTransferred",
      "type": "event"
    },
    {
      "anonymous": false,
      "inputs": [
        {
          "indexed": false,
          "internalType": "address",
          "name": "account",
          "type": "address"
        }
      ],
      "name": "Paused",
      "type": "event"
    },
    {
      "anonymous": false,
      "inputs": [
        {
          "indexed": false,
          "internalType": "address",
          "name": "account",
          "type": "address"
        }
      ],
      "name": "Unpaused",
      "type": "event"
    },
    {
      "inputs": [],
      "name": "MAX_HOUSE_FEE",
      "outputs": [
        {
          "internalType": "uint256",
          "name": "",
          "type": "uint256"
        }
      ],
      "stateMutability": "view",
      "type": "function"
    },
    {
      "inputs": [],
      "name": "arcToken",
      "outputs": [
        {
          "internalType": "contract IERC20",
          "name": "",
          "type": "address"
        }
      ],
      "stateMutability": "view",
      "type": "function"
    },
    {
      "inputs": [
        {
          "internalType": "uint256",
          "name": "",
          "type": "uint256"
        }
      ],
      "name": "bets",
      "outputs": [
        {
          "internalType": "address",
          "name": "player1",
          "type": "address"
        },
        {
          "internalType": "address",
          "name": "player2",
          "type": "address"
        },
        {
          "internalType": "uint256",
          "name": "amount",
          "type": "uint256"
        },
        {
          "internalType": "string",
          "name": "gameType",
          "type": "string"
        },
        {
          "internalType": "string",
          "name": "lobbyId",
          "type": "string"
        },
        {
          "internalType": "bool",
          "name": "active",
          "type": "bool"
        },
        {
          "internalType": "uint256",
          "name": "createdAt",
          "type": "uint256"
        },
        {
          "internalType": "address",
          "name": "winner",
          "type": "address"
        },
        {
          "internalType": "bool",
          "name": "resolved",
          "type": "bool"
        }
      ],
      "stateMutability": "view",
      "type": "function"
    },
    {
      "inputs": [
        {
          "internalType": "string",
          "name": "_lobbyId",
          "type": "string"
        }
      ],
      "name": "cancelBet",
      "outputs": [],
      "stateMutability": "nonpayable",
      "type": "function"
    },
    {
      "inputs": [
        {
          "internalType": "uint256",
          "name": "_amount",
          "type": "uint256"
        },
        {
          "internalType": "string",
          "name": "_gameType",
          "type": "string"
        },
        {
          "internalType": "string",
          "name": "_lobbyId",
          "type": "string"
        }
      ],
      "name": "createBet",
      "outputs": [],
      "stateMutability": "nonpayable",
      "type": "function"
    },
    {
      "inputs": [
        {
          "internalType": "string",
          "name": "_lobbyId",
          "type": "string"
        }
      ],
      "name": "emergencyRefund",
      "outputs": [],
      "stateMutability": "nonpayable",
      "type": "function"
    },
    {
      "inputs": [
        {
          "internalType": "string",
          "name": "_lobbyId",
          "type": "string"
        }
      ],
      "name": "getBetByLobby",
      "outputs": [
        {
          "components": [
            {
              "internalType": "address",
              "name": "player1",
              "type": "address"
            },
            {
              "internalType": "address",
              "name": "player2",
              "type": "address"
            },
            {
              "internalType": "uint256",
              "name": "amount",
              "type": "uint256"
            },
            {
              "internalType": "string",
              "name": "gameType",
              "type": "string"
            },
            {
              "internalType": "string",
              "name": "lobbyId",
              "type": "string"
            },
            {
              "internalType": "bool",
              "name": "active",
              "type": "bool"
            },
            {
              "internalType": "uint256",
              "name": "createdAt",
              "type": "uint256"
            },
            {
              "internalType": "address",
              "name": "winner",
              "type": "address"
            },
            {
              "internalType": "bool",
              "name": "resolved",
              "type": "bool"
            }
          ],
          "internalType": "struct GameBetting.Bet",
          "name": "",
          "type": "tuple"
        }
      ],
      "stateMutability": "view",
      "type": "function"
    },
    {
      "inputs": [
        {
          "internalType": "address",
          "name": "_player",
          "type": "address"
        }
      ],
      "name": "getPlayerBets",
      "outputs": [
        {
          "internalType": "uint256[]",
          "name": "",
          "type": "uint256[]"
        }
      ],
      "stateMutability": "view",
      "type": "function"
    },
    {
      "inputs": [],
      "name": "getStats",
      "outputs": [
        {
          "internalType": "uint256",
          "name": "",
          "type": "uint256"
        },
        {
          "internalType": "uint256",
          "name": "",
          "type": "uint256"
        },
        {
          "internalType": "uint256",
          "name": "",
          "type": "uint256"
        },
        {
          "internalType": "uint256",
          "name": "",
          "type": "uint256"
        }
      ],
      "stateMutability": "view",
      "type": "function"
    },
    {
      "inputs": [
        {
          "internalType": "string",
          "name": "_lobbyId",
          "type": "string"
        }
      ],
      "name": "hasActiveBet",
      "outputs": [
        {
          "internalType": "bool",
          "name": "",
          "type": "bool"
        }
      ],
      "stateMutability": "view",
      "type": "function"
    },
    {
      "inputs": [],
      "name": "houseFeePercent",
      "outputs": [
        {
          "internalType": "uint256",
          "name": "",
          "type": "uint256"
        }
      ],
      "stateMutability": "view",
      "type": "function"
    },
    {
      "inputs": [
        {
          "internalType": "string",
          "name": "_lobbyId",
          "type": "string"
        }
      ],
      "name": "joinBet",
      "outputs": [],
      "stateMutability": "nonpayable",
      "type": "function"
    },
    {
      "inputs": [
        {
          "internalType": "string",
          "name": "",
          "type": "string"
        }
      ],
      "name": "lobbyToBetId",
      "outputs": [
        {
          "internalType": "uint256",
          "name": "",
          "type": "uint256"
        }
      ],
      "stateMutability": "view",
      "type": "function"
    },
    {
      "inputs": [],
      "name": "maxBetAmount",
      "outputs": [
        {
          "internalType": "uint256",
          "name": "",
          "type": "uint256"
        }
      ],
      "stateMutability": "view",
      "type": "function"
    },
    {
      "inputs": [],
      "name": "minBetAmount",
      "outputs": [
        {
          "internalType": "uint256",
          "name": "",
          "type": "uint256"
        }
      ],
      "stateMutability": "view",
      "type": "function"
    },
    {
      "inputs": [],
      "name": "nextBetId",
      "outputs": [
        {
          "internalType": "uint256",
          "name": "",
          "type": "uint256"
        }
      ],
      "stateMutability": "view",
      "type": "function"
    },
    {
      "inputs": [],
      "name": "owner",
      "outputs": [
        {
          "internalType": "address",
          "name": "",
          "type": "address"
        }
      ],
      "stateMutability": "view",
      "type": "function"
    },
    {
      "inputs": [],
      "name": "pause",
      "outputs": [],
      "stateMutability": "nonpayable",
      "type": "function"
    },
    {
      "inputs": [],
      "name": "paused",
      "outputs": [
        {
          "internalType": "bool",
          "name": "",
          "type": "bool"
        }
      ],
      "stateMutability": "view",
      "type": "function"
    },
    {
      "inputs": [
        {
          "internalType": "address",
          "name": "",
          "type": "address"
        },
        {
          "internalType": "uint256",
          "name": "",
          "type": "uint256"
        }
      ],
      "name": "playerBets",
      "outputs": [
        {
          "internalType": "uint256",
          "name": "",
          "type": "uint256"
        }
      ],
      "stateMutability": "view",
      "type": "function"
    },
    {
      "inputs": [],
      "name": "renounceOwnership",
      "outputs": [],
      "stateMutability": "nonpayable",
      "type": "function"
    },
    {
      "inputs": [
        {
          "internalType": "string",
          "name": "_lobbyId",
          "type": "string"
        },
        {
          "internalType": "address",
          "name": "_winner",
          "type": "address"
        }
      ],
      "name": "resolveBet",
      "outputs": [],
      "stateMutability": "nonpayable",
      "type": "function"
    },
    {
      "inputs": [],
      "name": "totalBetsCreated",
      "outputs": [
        {
          "internalType": "uint256",
          "name": "",
          "type": "uint256"
        }
      ],
      "stateMutability": "view",
      "type": "function"
    },
    {
      "inputs": [],
      "name": "totalBetsResolved",
      "outputs": [
        {
          "internalType": "uint256",
          "name": "",
          "type": "uint256"
        }
      ],
      "stateMutability": "view",
      "type": "function"
    },
    {
      "inputs": [],
      "name": "totalHouseFees",
      "outputs": [
        {
          "internalType": "uint256",
          "name": "",
          "type": "uint256"
        }
      ],
      "stateMutability": "view",
      "type": "function"
    },
    {
      "inputs": [],
      "name": "totalVolumeWagered",
      "outputs": [
        {
          "internalType": "uint256",
          "name": "",
          "type": "uint256"
        }
      ],
      "stateMutability": "view",
      "type": "function"
    },
    {
      "inputs": [
        {
          "internalType": "address",
          "name": "newOwner",
          "type": "address"
        }
      ],
      "name": "transferOwnership",
      "outputs": [],
      "stateMutability": "nonpayable",
      "type": "function"
    },
    {
      "inputs": [],
      "name": "unpause",
      "outputs": [],
      "stateMutability": "nonpayable",
      "type": "function"
    },
    {
      "inputs": [
        {
          "internalType": "uint256",
          "name": "_newMinBet",
          "type": "uint256"
        },
        {
          "internalType": "uint256",
          "name": "_newMaxBet",
          "type": "uint256"
        }
      ],
      "name": "updateBetLimits",
      "outputs": [],
      "stateMutability": "nonpayable",
      "type": "function"
    },
    {
      "inputs": [
        {
          "internalType": "uint256",
          "name": "_newFeePercent",
          "type": "uint256"
        }
      ],
      "name": "updateHouseFee",
      "outputs": [],
      "stateMutability": "nonpayable",
      "type": "function"
    }
  ],
  "bytecode": "0x60a06040526101f4600255670de0b6b3a7640000600355683635c9adc5dea0000060045560016008553480156200003557600080fd5b50604051620027e0380380620027e08339810160408190526200005891620001cc565b6001600055806001600160a01b0381166200008e57604051631e4fbdf760e01b8152600060048201526024015b60405180910390fd5b62000099816200015d565b506001600160a01b038216620000f25760405162461bcd60e51b815260206004820152601960248201527f496e76616c69642041524320746f6b656e206164647265737300000000000000604482015260640162000085565b6001600160a01b0381166200014a5760405162461bcd60e51b815260206004820152601d60248201527f496e76616c696420696e697469616c206f776e65722061646472657373000000604482015260640162000085565b506001600160a01b031660805262000204565b600180546001600160a01b038381166001600160a01b0319831681179093556040519116919082907f8be0079c531659141344cd1fd0a4f28419497f9722a3daafe3b4186f6b6457e090600090a35050565b80516001600160a01b0381168114620001c757600080fd5b919050565b60008060408385031215620001e057600080fd5b620001eb83620001af565b9150620001fb60208401620001af565b90509250929050565b60805161258f62000251600039600081816103ac015281816107bf0152818161088001528181610dbe0152818161126e015281816114c9015281816115c00152611b23015261258f6000f3fe608060405234801561001057600080fd5b50600436106101da5760003560e01c8063997e929b11610104578063be4d962f116100a2578063cab11d5d11610071578063cab11d5d14610403578063eaf07c8c1461040c578063f2fde38b1461042c578063fa968eea1461043f57600080fd5b8063be4d962f14610394578063c0112678146103a7578063c521fa81146103ce578063c59d4847146103d757600080fd5b8063a5cc4546116100de578063a5cc454614610345578063a6efd7eb14610365578063ab6b1f681461036e578063b12c25cb1461038157600080fd5b8063997e929b146102fe5780639aca279214610329578063a27da5591461033257600080fd5b80635ae7dbfe1161017c57806372e06d8f1161014b57806372e06d8f146102b55780638456cb59146102be5780638da5cb5b146102c657806395056d92146102eb57600080fd5b80635ae7dbfe146102735780635c975abb1461027c57806363ccb69d1461029a578063715018a6146102ad57600080fd5b8063292e9556116101b8578063292e9556146102385780633e27fee21461024b5780633f4ba83a146102625780635343a9791461026a57600080fd5b8063034d3ec2146101df578063177d9d51146101f457806322af00fa14610207575b600080fd5b6101f26101ed366004611ebd565b610448565b005b6101f2610202366004611f9e565b610548565b61021a610215366004611fec565b6109e9565b60405161022f99989796959493929190612055565b60405180910390f35b6101f26102463660046120cc565b610b61565b61025460025481565b60405190815260200161022f565b6101f2611079565b610254600b5481565b6102546103e881565b600154600160a01b900460ff165b604051901515815260200161022f565b6101f26102a8366004612139565b61108b565b6101f2611393565b610254600a5481565b6101f26113a5565b6001546001600160a01b03165b6040516001600160a01b03909116815260200161022f565b6101f26102f9366004612139565b6113b5565b61025461030c366004612139565b805160208183018101805160068252928201919093012091525481565b61025460085481565b6101f2610340366004611fec565b611673565b610358610353366004612139565b6116fa565b60405161022f9190612176565b610254600c5481565b61025461037c36600461223f565b61193c565b61028a61038f366004612139565b61196d565b6101f26103a2366004612139565b6119be565b6102d37f000000000000000000000000000000000000000000000000000000000000000081565b61025460095481565b600954600a54600b54600c5460408051948552602085019390935291830152606082015260800161022f565b61025460045481565b61041f61041a366004612269565b611c80565b60405161022f919061228b565b6101f261043a366004612269565b611cec565b61025460035481565b610450611d27565b600082116104a55760405162461bcd60e51b815260206004820152601860248201527f4d696e20626574206d75737420626520706f736974697665000000000000000060448201526064015b60405180910390fd5b8181116105005760405162461bcd60e51b8152602060048201526024808201527f4d617820626574206d7573742062652067726561746572207468616e206d696e6044820152630818995d60e21b606482015260840161049c565b6003829055600481905560408051838152602081018390527ff483a8cf66fadba78e10f404e5f1639eb2a336535936e1af01f333d1215378d191015b60405180910390a15050565b610550611d27565b610558611d54565b600060068360405161056a91906122cf565b90815260200160405180910390205490508060000361059b5760405162461bcd60e51b815260040161049c906122eb565b60008181526005602081905260409091209081015460ff166105cf5760405162461bcd60e51b815260040161049c90612317565b60018101546001600160a01b03166106295760405162461bcd60e51b815260206004820152601d60248201527f42657420646f6573206e6f7420686176652074776f20706c6179657273000000604482015260640161049c565b6007810154600160a01b900460ff161561067c5760405162461bcd60e51b815260206004820152601460248201527310995d08185b1c9958591e481c995cdbdb1d995960621b604482015260640161049c565b80546001600160a01b03848116911614806106a6575060018101546001600160a01b038481169116145b6106fc5760405162461bcd60e51b815260206004820152602160248201527f57696e6e6572206d757374206265206f6e65206f662074686520706c617965726044820152607360f81b606482015260840161049c565b60008160020154600261070f9190612358565b90506000612710600254836107249190612358565b61072e9190612375565b9050600061073c8284612397565b6007850180546001600160a81b0319166001600160a01b03891617600160a01b17905560058501805460ff19169055600a8054919250600061077d836123aa565b919050555081600c600082825461079491906123c3565b909155505060405163a9059cbb60e01b81526001600160a01b038781166004830152602482018390527f0000000000000000000000000000000000000000000000000000000000000000169063a9059cbb906044016020604051808303816000875af1158015610808573d6000803e3d6000fd5b505050506040513d601f19601f8201168201806040525081019061082c91906123d6565b6108785760405162461bcd60e51b815260206004820152601860248201527f57696e6e696e6773207472616e73666572206661696c65640000000000000000604482015260640161049c565b811561097c577f00000000000000000000000000000000000000000000000000000000000000006001600160a01b031663a9059cbb6108bf6001546001600160a01b031690565b6040516001600160e01b031960e084901b1681526001600160a01b039091166004820152602481018590526044016020604051808303816000875af115801561090c573d6000803e3d6000fd5b505050506040513d601f19601f8201168201806040525081019061093091906123d6565b61097c5760405162461bcd60e51b815260206004820152601960248201527f486f75736520666565207472616e73666572206661696c656400000000000000604482015260640161049c565b856001600160a01b03168760405161099491906122cf565b60408051918290038220848352602083018690529188917f506a8b9b42781012ebccaff93451c0e78d9e988f35ed5d139fca98fadbd0353e910160405180910390a450505050506109e56001600055565b5050565b60056020526000908152604090208054600182015460028301546003840180546001600160a01b039485169594909316939192610a25906123f8565b80601f0160208091040260200160405190810160405280929190818152602001828054610a51906123f8565b8015610a9e5780601f10610a7357610100808354040283529160200191610a9e565b820191906000526020600020905b815481529060010190602001808311610a8157829003601f168201915b505050505090806004018054610ab3906123f8565b80601f0160208091040260200160405190810160405280929190818152602001828054610adf906123f8565b8015610b2c5780601f10610b0157610100808354040283529160200191610b2c565b820191906000526020600020905b815481529060010190602001808311610b0f57829003601f168201915b50505060058401546006850154600790950154939460ff918216949093506001600160a01b0381169250600160a01b90041689565b610b69611d54565b610b71611d7e565b6003548310158015610b8557506004548311155b610bc65760405162461bcd60e51b8152602060048201526012602482015271125b9d985b1a590818995d08185b5bdd5b9d60721b604482015260640161049c565b6000815111610c0a5760405162461bcd60e51b815260206004820152601060248201526f125b9d985b1a59081b1bd8989e48125160821b604482015260640161049c565b600681604051610c1a91906122cf565b908152602001604051809103902054600014610c825760405162461bcd60e51b815260206004820152602160248201527f42657420616c72656164792065786973747320666f722074686973206c6f62626044820152607960f81b606482015260840161049c565b604080518082019091526003815262756e6f60e81b6020918201528251908301207fcecaf085965a5ffbf7d9d22b89735e5b931137bd580e21df07372e6fa57fabd71480610d115750604080518082019091526005815264636865737360d81b6020918201528251908301207f2b41a1721814549e779cde9f98e0a4d2b13c7781ac19fc46ecc8aa0ba4050559145b80610d5c57506040805180820190915260048152631c1bdbdb60e21b6020918201528251908301207fe35b2940ca10a9581573918a0d9ed2422f97cc9196f63510c77f5a0ed5393cfd145b610d9c5760405162461bcd60e51b8152602060048201526011602482015270496e76616c69642067616d65207479706560781b604482015260640161049c565b6040516323b872dd60e01b8152336004820152306024820152604481018490527f00000000000000000000000000000000000000000000000000000000000000006001600160a01b0316906323b872dd906064016020604051808303816000875af1158015610e0f573d6000803e3d6000fd5b505050506040513d601f19601f82011682018060405250810190610e3391906123d6565b610e775760405162461bcd60e51b8152602060048201526015602482015274151bdad95b881d1c985b9cd9995c8819985a5b1959605a1b604482015260640161049c565b6008805460009182610e88836123aa565b909155506040805161012081018252338152600060208083018281528385018a8152606085018a8152608086018a9052600160a087018190524260c088015260e087018690526101008701869052888652600590945295909320845181546001600160a01b03199081166001600160a01b03928316178355925193820180549093169316929092179055905160028201559151929350916003820190610f2e9082612480565b5060808201516004820190610f439082612480565b5060a082015160058201805491151560ff1990921691909117905560c082015160068083019190915560e083015160079092018054610100909401511515600160a01b026001600160a81b03199094166001600160a01b0390931692909217929092179055604051829190610fb99085906122cf565b908152604080516020928190038301902092909255336000908152600782529182208054600181018255908352908220018290556009805491610ffb836123aa565b919050555083600b600082825461101291906123c3565b909155505060405133906110279084906122cf565b6040518091039020827f7f2d0c33600867234234db9a49c911e2338192c94684292733b547bc0b404dae8787604051611061929190612540565b60405180910390a4506110746001600055565b505050565b611081611d27565b611089611da9565b565b611093611d54565b60006006826040516110a591906122cf565b9081526020016040518091039020549050806000036110d65760405162461bcd60e51b815260040161049c906122eb565b60008181526005602081905260409091209081015460ff1661110a5760405162461bcd60e51b815260040161049c90612317565b80546001600160a01b031633146111635760405162461bcd60e51b815260206004820152601b60248201527f4f6e6c79206265742063726561746f722063616e2063616e63656c0000000000604482015260640161049c565b60018101546001600160a01b0316156111c95760405162461bcd60e51b815260206004820152602260248201527f43616e6e6f742063616e63656c2062657420776974682074776f20706c617965604482015261727360f01b606482015260840161049c565b60068101546111da90610e106123c3565b4210156112345760405162461bcd60e51b815260206004820152602260248201527f4d7573742077616974203120686f7572206265666f72652063616e63656c6c696044820152616e6760f01b606482015260840161049c565b60058101805460ff191690558054600282015460405163a9059cbb60e01b81526001600160a01b03928316600482015260248101919091527f00000000000000000000000000000000000000000000000000000000000000009091169063a9059cbb906044016020604051808303816000875af11580156112b9573d6000803e3d6000fd5b505050506040513d601f19601f820116820180604052508101906112dd91906123d6565b6113225760405162461bcd60e51b81526020600482015260166024820152751499599d5b99081d1c985b9cd9995c8819985a5b195960521b604482015260640161049c565b80546040516001600160a01b039091169061133e9085906122cf565b6040518091039020837f29eacf2bbb2ae15ba78d3c33ec1d5e7e128202306287ba60d7d68e1028a59be8846002015460405161137c91815260200190565b60405180910390a450506113906001600055565b50565b61139b611d27565b6110896000611dfe565b6113ad611d27565b611089611e50565b6113bd611d27565b6113c5611d54565b60006006826040516113d791906122cf565b9081526020016040518091039020549050806000036114085760405162461bcd60e51b815260040161049c906122eb565b60008181526005602081905260409091209081015460ff1661143c5760405162461bcd60e51b815260040161049c90612317565b6007810154600160a01b900460ff161561148f5760405162461bcd60e51b815260206004820152601460248201527310995d08185b1c9958591e481c995cdbdb1d995960621b604482015260640161049c565b60058101805460ff191690558054600282015460405163a9059cbb60e01b81526001600160a01b03928316600482015260248101919091527f00000000000000000000000000000000000000000000000000000000000000009091169063a9059cbb906044016020604051808303816000875af1158015611514573d6000803e3d6000fd5b505050506040513d601f19601f8201168201806040525081019061153891906123d6565b61157c5760405162461bcd60e51b8152602060048201526015602482015274141b185e595c8c481c99599d5b990819985a5b1959605a1b604482015260640161049c565b60018101546001600160a01b031615611322576001810154600282015460405163a9059cbb60e01b81526001600160a01b03928316600482015260248101919091527f00000000000000000000000000000000000000000000000000000000000000009091169063a9059cbb906044016020604051808303816000875af115801561160b573d6000803e3d6000fd5b505050506040513d601f19601f8201168201806040525081019061162f91906123d6565b6113225760405162461bcd60e51b8152602060048201526015602482015274141b185e595c8c881c99599d5b990819985a5b1959605a1b604482015260640161049c565b61167b611d27565b6103e88111156116bc5760405162461bcd60e51b815260206004820152600c60248201526b08ccaca40e8dede40d0d2ced60a31b604482015260640161049c565b600280549082905560408051828152602081018490527f7345b701f10e9d3668b5a43f0d350e2daf79563d2da6b2419cebdf90caed063b910161053c565b60408051610120810182526000808252602082018190529181018290526060808201819052608082015260a0810182905260c0810182905260e08101829052610100810191909152600060068360405161175491906122cf565b9081526020016040518091039020549050806000036117855760405162461bcd60e51b815260040161049c906122eb565b60008181526005602090815260409182902082516101208101845281546001600160a01b039081168252600183015416928101929092526002810154928201929092526003820180549192916060840191906117e0906123f8565b80601f016020809104026020016040519081016040528092919081815260200182805461180c906123f8565b80156118595780601f1061182e57610100808354040283529160200191611859565b820191906000526020600020905b81548152906001019060200180831161183c57829003601f168201915b50505050508152602001600482018054611872906123f8565b80601f016020809104026020016040519081016040528092919081815260200182805461189e906123f8565b80156118eb5780601f106118c0576101008083540402835291602001916118eb565b820191906000526020600020905b8154815290600101906020018083116118ce57829003601f168201915b5050509183525050600582015460ff90811615156020830152600683015460408301526007909201546001600160a01b0381166060830152600160a01b900490911615156080909101529392505050565b6007602052816000526040600020818154811061195857600080fd5b90600052602060002001600091509150505481565b60008060068360405161198091906122cf565b9081526020016040518091039020549050806000036119a25750600092915050565b6000908152600560208190526040909120015460ff1692915050565b6119c6611d54565b6119ce611d7e565b60006006826040516119e091906122cf565b908152602001604051809103902054905080600003611a115760405162461bcd60e51b815260040161049c906122eb565b60008181526005602081905260409091209081015460ff16611a455760405162461bcd60e51b815260040161049c90612317565b60018101546001600160a01b031615611aa05760405162461bcd60e51b815260206004820152601b60248201527f42657420616c7265616479206861732074776f20706c61796572730000000000604482015260640161049c565b8054336001600160a01b0390911603611afb5760405162461bcd60e51b815260206004820152601860248201527f43616e6e6f74206a6f696e20796f7572206f776e206265740000000000000000604482015260640161049c565b60028101546040516323b872dd60e01b815233600482015230602482015260448101919091527f00000000000000000000000000000000000000000000000000000000000000006001600160a01b0316906323b872dd906064016020604051808303816000875af1158015611b74573d6000803e3d6000fd5b505050506040513d601f19601f82011682018060405250810190611b9891906123d6565b611bdc5760405162461bcd60e51b8152602060048201526015602482015274151bdad95b881d1c985b9cd9995c8819985a5b1959605a1b604482015260640161049c565b600180820180546001600160a01b031916339081179091556000908152600760209081526040822080549384018155825281209091018390556002820154600b805491929091611c2d9084906123c3565b90915550506040513390611c429085906122cf565b6040518091039020837ff69793df20aa9914de2af669f9a908435b37e4f4d84bab9d6bc3bae83e4cbdd2846002015460405161137c91815260200190565b6001600160a01b038116600090815260076020908152604091829020805483518184028101840190945280845260609392830182828015611ce057602002820191906000526020600020905b815481526020019060010190808311611ccc575b50505050509050919050565b611cf4611d27565b6001600160a01b038116611d1e57604051631e4fbdf760e01b81526000600482015260240161049c565b61139081611dfe565b6001546001600160a01b031633146110895760405163118cdaa760e01b815233600482015260240161049c565b600260005403611d7757604051633ee5aeb560e01b815260040160405180910390fd5b6002600055565b600154600160a01b900460ff16156110895760405163d93c066560e01b815260040160405180910390fd5b611db1611e93565b6001805460ff60a01b191690557f5db9ee0a495bf2e6ff9c91a7834c1ba4fdd244a5e8aa4e537bd38aeae4b073aa335b6040516001600160a01b03909116815260200160405180910390a1565b600180546001600160a01b038381166001600160a01b0319831681179093556040519116919082907f8be0079c531659141344cd1fd0a4f28419497f9722a3daafe3b4186f6b6457e090600090a35050565b611e58611d7e565b6001805460ff60a01b1916600160a01b1790557f62e78cea01bee320cd4e420270b5ea74000d11b0c9f74754ebdbfc544b05a258611de13390565b600154600160a01b900460ff1661108957604051638dfc202b60e01b815260040160405180910390fd5b60008060408385031215611ed057600080fd5b50508035926020909101359150565b634e487b7160e01b600052604160045260246000fd5b600082601f830112611f0657600080fd5b813567ffffffffffffffff80821115611f2157611f21611edf565b604051601f8301601f19908116603f01168101908282118183101715611f4957611f49611edf565b81604052838152866020858801011115611f6257600080fd5b836020870160208301376000602085830101528094505050505092915050565b80356001600160a01b0381168114611f9957600080fd5b919050565b60008060408385031215611fb157600080fd5b823567ffffffffffffffff811115611fc857600080fd5b611fd485828601611ef5565b925050611fe360208401611f82565b90509250929050565b600060208284031215611ffe57600080fd5b5035919050565b60005b83811015612020578181015183820152602001612008565b50506000910152565b60008151808452612041816020860160208601612005565b601f01601f19169290920160200192915050565b6001600160a01b038a811682528981166020830152604082018990526101206060830181905260009161208a8483018b612029565b9150838203608085015261209e828a612029565b97151560a085015260c084019690965250509190921660e08201529015156101009091015295945050505050565b6000806000606084860312156120e157600080fd5b83359250602084013567ffffffffffffffff8082111561210057600080fd5b61210c87838801611ef5565b9350604086013591508082111561212257600080fd5b5061212f86828701611ef5565b9150509250925092565b60006020828403121561214b57600080fd5b813567ffffffffffffffff81111561216257600080fd5b61216e84828501611ef5565b949350505050565b602081526121906020820183516001600160a01b03169052565b600060208301516121ac60408401826001600160a01b03169052565b506040830151606083015260608301516101208060808501526121d3610140850183612029565b91506080850151601f198584030160a08601526121f08382612029565b92505060a085015161220660c086018215159052565b5060c085015160e085015260e085015161010061222d818701836001600160a01b03169052565b90950151151593019290925250919050565b6000806040838503121561225257600080fd5b61225b83611f82565b946020939093013593505050565b60006020828403121561227b57600080fd5b61228482611f82565b9392505050565b6020808252825182820181905260009190848201906040850190845b818110156122c3578351835292840192918401916001016122a7565b50909695505050505050565b600082516122e1818460208701612005565b9190910192915050565b60208082526012908201527110995d08191bd95cc81b9bdd08195e1a5cdd60721b604082015260600190565b602080825260119082015270426574206973206e6f742061637469766560781b604082015260600190565b634e487b7160e01b600052601160045260246000fd5b808202811582820484141761236f5761236f612342565b92915050565b60008261239257634e487b7160e01b600052601260045260246000fd5b500490565b8181038181111561236f5761236f612342565b6000600182016123bc576123bc612342565b5060010190565b8082018082111561236f5761236f612342565b6000602082840312156123e857600080fd5b8151801515811461228457600080fd5b600181811c9082168061240c57607f821691505b60208210810361242c57634e487b7160e01b600052602260045260246000fd5b50919050565b601f82111561107457600081815260208120601f850160051c810160208610156124595750805b601f850160051c820191505b8181101561247857828155600101612465565b505050505050565b815167ffffffffffffffff81111561249a5761249a611edf565b6124ae816124a884546123f8565b84612432565b602080601f8311600181146124e357600084156124cb5750858301515b600019600386901b1c1916600185901b178555612478565b600085815260208120601f198616915b82811015612512578886015182559484019460019091019084016124f3565b50858210156125305787850151600019600388901b60f8161c191681555b5050505050600190811b01905550565b82815260406020820152600061216e604083018461202956fea264697066735822122056530bc603f3eaed6a3654494609d8f8790a8cad9a49df6609a7d5bed876f33464736f6c63430008140033",
  "linkReferences": {},
  "deployedLinkReferences": {}
}